{
  "_format": "hh-sol-artifact-1",
  "contractName": "CertificateNFT",
  "sourceName": "contracts/nft.sol",
  "abi": [
    {
      "inputs": [],
      "stateMutability": "nonpayable",
      "type": "constructor"
    },
    {
      "inputs": [
        {
          "internalType": "address",
          "name": "sender",
          "type": "address"
        },
        {
          "internalType": "uint256",
          "name": "tokenId",
          "type": "uint256"
        },
        {
          "internalType": "address",
          "name": "owner",
          "type": "address"
        }
      ],
      "name": "ERC721IncorrectOwner",
      "type": "error"
    },
    {
      "inputs": [
        {
          "internalType": "address",
          "name": "operator",
          "type": "address"
        },
        {
          "internalType": "uint256",
          "name": "tokenId",
          "type": "uint256"
        }
      ],
      "name": "ERC721InsufficientApproval",
      "type": "error"
    },
    {
      "inputs": [
        {
          "internalType": "address",
          "name": "approver",
          "type": "address"
        }
      ],
      "name": "ERC721InvalidApprover",
      "type": "error"
    },
    {
      "inputs": [
        {
          "internalType": "address",
          "name": "operator",
          "type": "address"
        }
      ],
      "name": "ERC721InvalidOperator",
      "type": "error"
    },
    {
      "inputs": [
        {
          "internalType": "address",
          "name": "owner",
          "type": "address"
        }
      ],
      "name": "ERC721InvalidOwner",
      "type": "error"
    },
    {
      "inputs": [
        {
          "internalType": "address",
          "name": "receiver",
          "type": "address"
        }
      ],
      "name": "ERC721InvalidReceiver",
      "type": "error"
    },
    {
      "inputs": [
        {
          "internalType": "address",
          "name": "sender",
          "type": "address"
        }
      ],
      "name": "ERC721InvalidSender",
      "type": "error"
    },
    {
      "inputs": [
        {
          "internalType": "uint256",
          "name": "tokenId",
          "type": "uint256"
        }
      ],
      "name": "ERC721NonexistentToken",
      "type": "error"
    },
    {
      "anonymous": false,
      "inputs": [
        {
          "indexed": true,
          "internalType": "address",
          "name": "owner",
          "type": "address"
        },
        {
          "indexed": true,
          "internalType": "address",
          "name": "approved",
          "type": "address"
        },
        {
          "indexed": true,
          "internalType": "uint256",
          "name": "tokenId",
          "type": "uint256"
        }
      ],
      "name": "Approval",
      "type": "event"
    },
    {
      "anonymous": false,
      "inputs": [
        {
          "indexed": true,
          "internalType": "address",
          "name": "owner",
          "type": "address"
        },
        {
          "indexed": true,
          "internalType": "address",
          "name": "operator",
          "type": "address"
        },
        {
          "indexed": false,
          "internalType": "bool",
          "name": "approved",
          "type": "bool"
        }
      ],
      "name": "ApprovalForAll",
      "type": "event"
    },
    {
      "anonymous": false,
      "inputs": [
        {
          "indexed": true,
          "internalType": "address",
          "name": "to",
          "type": "address"
        },
        {
          "indexed": true,
          "internalType": "uint256",
          "name": "tokenId",
          "type": "uint256"
        },
        {
          "indexed": false,
          "internalType": "string",
          "name": "ipfsURI",
          "type": "string"
        }
      ],
      "name": "CertificateMinted",
      "type": "event"
    },
    {
      "anonymous": false,
      "inputs": [
        {
          "indexed": true,
          "internalType": "uint256",
          "name": "tokenId",
          "type": "uint256"
        }
      ],
      "name": "CertificateRevoked",
      "type": "event"
    },
    {
      "anonymous": false,
      "inputs": [
        {
          "indexed": true,
          "internalType": "address",
          "name": "from",
          "type": "address"
        },
        {
          "indexed": true,
          "internalType": "address",
          "name": "to",
          "type": "address"
        },
        {
          "indexed": true,
          "internalType": "uint256",
          "name": "tokenId",
          "type": "uint256"
        }
      ],
      "name": "Transfer",
      "type": "event"
    },
    {
      "inputs": [
        {
          "internalType": "address",
          "name": "to",
          "type": "address"
        },
        {
          "internalType": "uint256",
          "name": "tokenId",
          "type": "uint256"
        }
      ],
      "name": "approve",
      "outputs": [],
      "stateMutability": "nonpayable",
      "type": "function"
    },
    {
      "inputs": [
        {
          "internalType": "address",
          "name": "owner",
          "type": "address"
        }
      ],
      "name": "balanceOf",
      "outputs": [
        {
          "internalType": "uint256",
          "name": "",
          "type": "uint256"
        }
      ],
      "stateMutability": "view",
      "type": "function"
    },
    {
      "inputs": [
        {
          "internalType": "uint256",
          "name": "",
          "type": "uint256"
        }
      ],
      "name": "certificates",
      "outputs": [
        {
          "internalType": "string",
          "name": "ipfsURI",
          "type": "string"
        },
        {
          "internalType": "uint256",
          "name": "issuedAt",
          "type": "uint256"
        }
      ],
      "stateMutability": "view",
      "type": "function"
    },
    {
      "inputs": [
        {
          "internalType": "uint256",
          "name": "tokenId",
          "type": "uint256"
        }
      ],
      "name": "getApproved",
      "outputs": [
        {
          "internalType": "address",
          "name": "",
          "type": "address"
        }
      ],
      "stateMutability": "view",
      "type": "function"
    },
    {
      "inputs": [
        {
          "internalType": "address",
          "name": "owner",
          "type": "address"
        },
        {
          "internalType": "address",
          "name": "operator",
          "type": "address"
        }
      ],
      "name": "isApprovedForAll",
      "outputs": [
        {
          "internalType": "bool",
          "name": "",
          "type": "bool"
        }
      ],
      "stateMutability": "view",
      "type": "function"
    },
    {
      "inputs": [
        {
          "internalType": "address",
          "name": "to",
          "type": "address"
        },
        {
          "internalType": "string",
          "name": "ipfsURI",
          "type": "string"
        }
      ],
      "name": "mint",
      "outputs": [
        {
          "internalType": "uint256",
          "name": "tokenId",
          "type": "uint256"
        }
      ],
      "stateMutability": "nonpayable",
      "type": "function"
    },
    {
      "inputs": [],
      "name": "name",
      "outputs": [
        {
          "internalType": "string",
          "name": "",
          "type": "string"
        }
      ],
      "stateMutability": "view",
      "type": "function"
    },
    {
      "inputs": [],
      "name": "nextTokenId",
      "outputs": [
        {
          "internalType": "uint256",
          "name": "",
          "type": "uint256"
        }
      ],
      "stateMutability": "view",
      "type": "function"
    },
    {
      "inputs": [],
      "name": "owner",
      "outputs": [
        {
          "internalType": "address",
          "name": "",
          "type": "address"
        }
      ],
      "stateMutability": "view",
      "type": "function"
    },
    {
      "inputs": [
        {
          "internalType": "uint256",
          "name": "tokenId",
          "type": "uint256"
        }
      ],
      "name": "ownerOf",
      "outputs": [
        {
          "internalType": "address",
          "name": "",
          "type": "address"
        }
      ],
      "stateMutability": "view",
      "type": "function"
    },
    {
      "inputs": [
        {
          "internalType": "uint256",
          "name": "tokenId",
          "type": "uint256"
        }
      ],
      "name": "revokeCert",
      "outputs": [],
      "stateMutability": "nonpayable",
      "type": "function"
    },
    {
      "inputs": [
        {
          "internalType": "address",
          "name": "from",
          "type": "address"
        },
        {
          "internalType": "address",
          "name": "to",
          "type": "address"
        },
        {
          "internalType": "uint256",
          "name": "tokenId",
          "type": "uint256"
        }
      ],
      "name": "safeTransferFrom",
      "outputs": [],
      "stateMutability": "nonpayable",
      "type": "function"
    },
    {
      "inputs": [
        {
          "internalType": "address",
          "name": "from",
          "type": "address"
        },
        {
          "internalType": "address",
          "name": "to",
          "type": "address"
        },
        {
          "internalType": "uint256",
          "name": "tokenId",
          "type": "uint256"
        },
        {
          "internalType": "bytes",
          "name": "data",
          "type": "bytes"
        }
      ],
      "name": "safeTransferFrom",
      "outputs": [],
      "stateMutability": "nonpayable",
      "type": "function"
    },
    {
      "inputs": [
        {
          "internalType": "address",
          "name": "operator",
          "type": "address"
        },
        {
          "internalType": "bool",
          "name": "approved",
          "type": "bool"
        }
      ],
      "name": "setApprovalForAll",
      "outputs": [],
      "stateMutability": "nonpayable",
      "type": "function"
    },
    {
      "inputs": [
        {
          "internalType": "bytes4",
          "name": "interfaceId",
          "type": "bytes4"
        }
      ],
      "name": "supportsInterface",
      "outputs": [
        {
          "internalType": "bool",
          "name": "",
          "type": "bool"
        }
      ],
      "stateMutability": "view",
      "type": "function"
    },
    {
      "inputs": [],
      "name": "symbol",
      "outputs": [
        {
          "internalType": "string",
          "name": "",
          "type": "string"
        }
      ],
      "stateMutability": "view",
      "type": "function"
    },
    {
      "inputs": [
        {
          "internalType": "uint256",
          "name": "tokenId",
          "type": "uint256"
        }
      ],
      "name": "tokenURI",
      "outputs": [
        {
          "internalType": "string",
          "name": "",
          "type": "string"
        }
      ],
      "stateMutability": "view",
      "type": "function"
    },
    {
      "inputs": [
        {
          "internalType": "address",
          "name": "from",
          "type": "address"
        },
        {
          "internalType": "address",
          "name": "to",
          "type": "address"
        },
        {
          "internalType": "uint256",
          "name": "tokenId",
          "type": "uint256"
        }
      ],
      "name": "transferFrom",
      "outputs": [],
      "stateMutability": "nonpayable",
      "type": "function"
    }
  ],
  "bytecode": "0x608060405234801562000010575f80fd5b506040518060400160405280600781526020017f43657274696679000000000000000000000000000000000000000000000000008152506040518060400160405280600481526020017f4345525400000000000000000000000000000000000000000000000000000000815250815f90816200008d91906200034c565b5080600190816200009f91906200034c565b5050503360075f6101000a81548173ffffffffffffffffffffffffffffffffffffffff021916908373ffffffffffffffffffffffffffffffffffffffff16021790555062000430565b5f81519050919050565b7f4e487b71000000000000000000000000000000000000000000000000000000005f52604160045260245ffd5b7f4e487b71000000000000000000000000000000000000000000000000000000005f52602260045260245ffd5b5f60028204905060018216806200016457607f821691505b6020821081036200017a57620001796200011f565b5b50919050565b5f819050815f5260205f209050919050565b5f6020601f8301049050919050565b5f82821b905092915050565b5f60088302620001de7fffffffffffffffffffffffffffffffffffffffffffffffffffffffffffffffff82620001a1565b620001ea8683620001a1565b95508019841693508086168417925050509392505050565b5f819050919050565b5f819050919050565b5f620002346200022e620002288462000202565b6200020b565b62000202565b9050919050565b5f819050919050565b6200024f8362000214565b620002676200025e826200023b565b848454620001ad565b825550505050565b5f90565b6200027d6200026f565b6200028a81848462000244565b505050565b5b81811015620002b157620002a55f8262000273565b60018101905062000290565b5050565b601f8211156200030057620002ca8162000180565b620002d58462000192565b81016020851015620002e5578190505b620002fd620002f48562000192565b8301826200028f565b50505b505050565b5f82821c905092915050565b5f620003225f198460080262000305565b1980831691505092915050565b5f6200033c838362000311565b9150826002028217905092915050565b6200035782620000e8565b67ffffffffffffffff811115620003735762000372620000f2565b5b6200037f82546200014c565b6200038c828285620002b5565b5f60209050601f831160018114620003c2575f8415620003ad578287015190505b620003b985826200032f565b86555062000428565b601f198416620003d28662000180565b5f5b82811015620003fb57848901518255600182019150602085019450602081019050620003d4565b868310156200041b578489015162000417601f89168262000311565b8355505b6001600288020188555050505b505050505050565b6129e6806200043e5f395ff3fe608060405234801561000f575f80fd5b5060043610610114575f3560e01c806375794a3c116100a0578063b88d4fde1161006f578063b88d4fde146102f1578063c87b56dd1461030d578063d0def5211461033d578063dbcbc2721461036d578063e985e9c51461038957610114565b806375794a3c1461027b5780638da5cb5b1461029957806395d89b41146102b7578063a22cb465146102d557610114565b806323b872dd116100e757806323b872dd146101b257806342842e0e146101ce5780636352211e146101ea578063663b3e221461021a57806370a082311461024b57610114565b806301ffc9a71461011857806306fdde0314610148578063081812fc14610166578063095ea7b314610196575b5f80fd5b610132600480360381019061012d9190611bc8565b6103b9565b60405161013f9190611c0d565b60405180910390f35b61015061049a565b60405161015d9190611cb0565b60405180910390f35b610180600480360381019061017b9190611d03565b610529565b60405161018d9190611d6d565b60405180910390f35b6101b060048036038101906101ab9190611db0565b610544565b005b6101cc60048036038101906101c79190611dee565b61055a565b005b6101e860048036038101906101e39190611dee565b610659565b005b61020460048036038101906101ff9190611d03565b610678565b6040516102119190611d6d565b60405180910390f35b610234600480360381019061022f9190611d03565b610689565b604051610242929190611e4d565b60405180910390f35b61026560048036038101906102609190611e7b565b61072f565b6040516102729190611ea6565b60405180910390f35b6102836107e5565b6040516102909190611ea6565b60405180910390f35b6102a16107eb565b6040516102ae9190611d6d565b60405180910390f35b6102bf610810565b6040516102cc9190611cb0565b60405180910390f35b6102ef60048036038101906102ea9190611ee9565b6108a0565b005b61030b60048036038101906103069190612053565b6108b6565b005b61032760048036038101906103229190611d03565b6108db565b6040516103349190611cb0565b60405180910390f35b61035760048036038101906103529190612171565b610b42565b6040516103649190611ea6565b60405180910390f35b61038760048036038101906103829190611d03565b610cd3565b005b6103a3600480360381019061039e91906121cb565b610e11565b6040516103b09190611c0d565b60405180910390f35b5f7f80ac58cd000000000000000000000000000000000000000000000000000000007bffffffffffffffffffffffffffffffffffffffffffffffffffffffff1916827bffffffffffffffffffffffffffffffffffffffffffffffffffffffff1916148061048357507f5b5e139f000000000000000000000000000000000000000000000000000000007bffffffffffffffffffffffffffffffffffffffffffffffffffffffff1916827bffffffffffffffffffffffffffffffffffffffffffffffffffffffff1916145b80610493575061049282610e9f565b5b9050919050565b60605f80546104a890612236565b80601f01602080910402602001604051908101604052809291908181526020018280546104d490612236565b801561051f5780601f106104f65761010080835404028352916020019161051f565b820191905f5260205f20905b81548152906001019060200180831161050257829003601f168201915b5050505050905090565b5f61053382610f08565b5061053d82610f8e565b9050919050565b6105568282610551610fc7565b610fce565b5050565b5f73ffffffffffffffffffffffffffffffffffffffff168273ffffffffffffffffffffffffffffffffffffffff16036105ca575f6040517f64a0ae920000000000000000000000000000000000000000000000000000000081526004016105c19190611d6d565b60405180910390fd5b5f6105dd83836105d8610fc7565b610fe0565b90508373ffffffffffffffffffffffffffffffffffffffff168173ffffffffffffffffffffffffffffffffffffffff1614610653578382826040517f64283d7b00000000000000000000000000000000000000000000000000000000815260040161064a93929190612266565b60405180910390fd5b50505050565b61067383838360405180602001604052805f8152506108b6565b505050565b5f61068282610f08565b9050919050565b6008602052805f5260405f205f91509050805f0180546106a890612236565b80601f01602080910402602001604051908101604052809291908181526020018280546106d490612236565b801561071f5780601f106106f65761010080835404028352916020019161071f565b820191905f5260205f20905b81548152906001019060200180831161070257829003601f168201915b5050505050908060010154905082565b5f8073ffffffffffffffffffffffffffffffffffffffff168273ffffffffffffffffffffffffffffffffffffffff16036107a0575f6040517f89c62b640000000000000000000000000000000000000000000000000000000081526004016107979190611d6d565b60405180910390fd5b60035f8373ffffffffffffffffffffffffffffffffffffffff1673ffffffffffffffffffffffffffffffffffffffff1681526020019081526020015f20549050919050565b60065481565b60075f9054906101000a900473ffffffffffffffffffffffffffffffffffffffff1681565b60606001805461081f90612236565b80601f016020809104026020016040519081016040528092919081815260200182805461084b90612236565b80156108965780601f1061086d57610100808354040283529160200191610896565b820191905f5260205f20905b81548152906001019060200180831161087957829003601f168201915b5050505050905090565b6108b26108ab610fc7565b83836110a2565b5050565b6108c184848461055a565b6108d56108cc610fc7565b8585858561127b565b50505050565b60605f73ffffffffffffffffffffffffffffffffffffffff166108fd83610678565b73ffffffffffffffffffffffffffffffffffffffff1603610953576040517f08c379a000000000000000000000000000000000000000000000000000000000815260040161094a906122e5565b60405180910390fd5b5f60085f8481526020019081526020015f205f01805461097290612236565b80601f016020809104026020016040519081016040528092919081815260200182805461099e90612236565b80156109e95780601f106109c0576101008083540402835291602001916109e9565b820191905f5260205f20905b8154815290600101906020018083116109cc57829003601f168201915b505050505090506007815111610a34576040517f08c379a0000000000000000000000000000000000000000000000000000000008152600401610a2b9061234d565b60405180910390fd5b5f60078251610a439190612398565b67ffffffffffffffff811115610a5c57610a5b611f2f565b5b6040519080825280601f01601f191660200182016040528015610a8e5781602001600182028036833780820191505090505b5090505f600790505b8251811015610b1857828181518110610ab357610ab26123cb565b5b602001015160f81c60f81b82600783610acc9190612398565b81518110610add57610adc6123cb565b5b60200101907effffffffffffffffffffffffffffffffffffffffffffffffffffffffffffff191690815f1a9053508080600101915050610a97565b5080604051602001610b2a91906124a2565b60405160208183030381529060405292505050919050565b5f60075f9054906101000a900473ffffffffffffffffffffffffffffffffffffffff1673ffffffffffffffffffffffffffffffffffffffff163373ffffffffffffffffffffffffffffffffffffffff1614610bd2576040517f08c379a0000000000000000000000000000000000000000000000000000000008152600401610bc99061250d565b60405180910390fd5b5f825111610c15576040517f08c379a0000000000000000000000000000000000000000000000000000000008152600401610c0c90612575565b60405180910390fd5b60065f815480929190610c2790612593565b919050559050610c378382611427565b60405180604001604052808381526020014281525060085f8381526020019081526020015f205f820151815f019081610c709190612777565b5060208201518160010155905050808373ffffffffffffffffffffffffffffffffffffffff167fde5d6fd45e32fffb472bcbaeedf6a2e3944633c9701eec7d99adfa07ad6104c184604051610cc59190611cb0565b60405180910390a392915050565b60075f9054906101000a900473ffffffffffffffffffffffffffffffffffffffff1673ffffffffffffffffffffffffffffffffffffffff163373ffffffffffffffffffffffffffffffffffffffff1614610d62576040517f08c379a0000000000000000000000000000000000000000000000000000000008152600401610d599061250d565b60405180910390fd5b5f73ffffffffffffffffffffffffffffffffffffffff16610d8282610678565b73ffffffffffffffffffffffffffffffffffffffff1603610dd8576040517f08c379a0000000000000000000000000000000000000000000000000000000008152600401610dcf906122e5565b60405180910390fd5b610de181611444565b807fefa6c5f47ac2523bb4db18032377bf7fdce0fa9d86eddcae1ca9bba38be615d760405160405180910390a250565b5f60055f8473ffffffffffffffffffffffffffffffffffffffff1673ffffffffffffffffffffffffffffffffffffffff1681526020019081526020015f205f8373ffffffffffffffffffffffffffffffffffffffff1673ffffffffffffffffffffffffffffffffffffffff1681526020019081526020015f205f9054906101000a900460ff16905092915050565b5f7f01ffc9a7000000000000000000000000000000000000000000000000000000007bffffffffffffffffffffffffffffffffffffffffffffffffffffffff1916827bffffffffffffffffffffffffffffffffffffffffffffffffffffffff1916149050919050565b5f80610f13836114c6565b90505f73ffffffffffffffffffffffffffffffffffffffff168173ffffffffffffffffffffffffffffffffffffffff1603610f8557826040517f7e273289000000000000000000000000000000000000000000000000000000008152600401610f7c9190611ea6565b60405180910390fd5b80915050919050565b5f60045f8381526020019081526020015f205f9054906101000a900473ffffffffffffffffffffffffffffffffffffffff169050919050565b5f33905090565b610fdb83838360016114ff565b505050565b5f80610fed8585856116be565b90505f73ffffffffffffffffffffffffffffffffffffffff168173ffffffffffffffffffffffffffffffffffffffff161415801561105757505f73ffffffffffffffffffffffffffffffffffffffff168573ffffffffffffffffffffffffffffffffffffffff1614155b15611097576040517f08c379a000000000000000000000000000000000000000000000000000000000815260040161108e90612890565b60405180910390fd5b809150509392505050565b5f73ffffffffffffffffffffffffffffffffffffffff168373ffffffffffffffffffffffffffffffffffffffff1603611112575f6040517fa9fbf51f0000000000000000000000000000000000000000000000000000000081526004016111099190611d6d565b60405180910390fd5b5f73ffffffffffffffffffffffffffffffffffffffff168273ffffffffffffffffffffffffffffffffffffffff160361118257816040517f5b08ba180000000000000000000000000000000000000000000000000000000081526004016111799190611d6d565b60405180910390fd5b8060055f8573ffffffffffffffffffffffffffffffffffffffff1673ffffffffffffffffffffffffffffffffffffffff1681526020019081526020015f205f8473ffffffffffffffffffffffffffffffffffffffff1673ffffffffffffffffffffffffffffffffffffffff1681526020019081526020015f205f6101000a81548160ff0219169083151502179055508173ffffffffffffffffffffffffffffffffffffffff168373ffffffffffffffffffffffffffffffffffffffff167f17307eab39ab6107e8899845ad3d59bd9653f200f220920489ca2b5937696c318360405161126e9190611c0d565b60405180910390a3505050565b5f8373ffffffffffffffffffffffffffffffffffffffff163b1115611420578273ffffffffffffffffffffffffffffffffffffffff1663150b7a02868685856040518563ffffffff1660e01b81526004016112d99493929190612900565b6020604051808303815f875af192505050801561131457506040513d601f19601f82011682018060405250810190611311919061295e565b60015b611395573d805f8114611342576040519150601f19603f3d011682016040523d82523d5f602084013e611347565b606091505b505f81510361138d57836040517f64a0ae920000000000000000000000000000000000000000000000000000000081526004016113849190611d6d565b60405180910390fd5b805160208201fd5b63150b7a0260e01b7bffffffffffffffffffffffffffffffffffffffffffffffffffffffff1916817bffffffffffffffffffffffffffffffffffffffffffffffffffffffff19161461141e57836040517f64a0ae920000000000000000000000000000000000000000000000000000000081526004016114159190611d6d565b60405180910390fd5b505b5050505050565b611440828260405180602001604052805f8152506118c9565b5050565b5f6114505f835f610fe0565b90505f73ffffffffffffffffffffffffffffffffffffffff168173ffffffffffffffffffffffffffffffffffffffff16036114c257816040517f7e2732890000000000000000000000000000000000000000000000000000000081526004016114b99190611ea6565b60405180910390fd5b5050565b5f60025f8381526020019081526020015f205f9054906101000a900473ffffffffffffffffffffffffffffffffffffffff169050919050565b808061153757505f73ffffffffffffffffffffffffffffffffffffffff168273ffffffffffffffffffffffffffffffffffffffff1614155b15611669575f61154684610f08565b90505f73ffffffffffffffffffffffffffffffffffffffff168373ffffffffffffffffffffffffffffffffffffffff16141580156115b057508273ffffffffffffffffffffffffffffffffffffffff168173ffffffffffffffffffffffffffffffffffffffff1614155b80156115c357506115c18184610e11565b155b1561160557826040517fa9fbf51f0000000000000000000000000000000000000000000000000000000081526004016115fc9190611d6d565b60405180910390fd5b811561166757838573ffffffffffffffffffffffffffffffffffffffff168273ffffffffffffffffffffffffffffffffffffffff167f8c5be1e5ebec7d5bd14f71427d1e84f3dd0314c0f7b2291e5b200ac8c7c3b92560405160405180910390a45b505b8360045f8581526020019081526020015f205f6101000a81548173ffffffffffffffffffffffffffffffffffffffff021916908373ffffffffffffffffffffffffffffffffffffffff16021790555050505050565b5f806116c9846114c6565b90505f73ffffffffffffffffffffffffffffffffffffffff168373ffffffffffffffffffffffffffffffffffffffff161461170a576117098184866118ec565b5b5f73ffffffffffffffffffffffffffffffffffffffff168173ffffffffffffffffffffffffffffffffffffffff1614611795576117495f855f806114ff565b600160035f8373ffffffffffffffffffffffffffffffffffffffff1673ffffffffffffffffffffffffffffffffffffffff1681526020019081526020015f205f82825403925050819055505b5f73ffffffffffffffffffffffffffffffffffffffff168573ffffffffffffffffffffffffffffffffffffffff161461181457600160035f8773ffffffffffffffffffffffffffffffffffffffff1673ffffffffffffffffffffffffffffffffffffffff1681526020019081526020015f205f82825401925050819055505b8460025f8681526020019081526020015f205f6101000a81548173ffffffffffffffffffffffffffffffffffffffff021916908373ffffffffffffffffffffffffffffffffffffffff160217905550838573ffffffffffffffffffffffffffffffffffffffff168273ffffffffffffffffffffffffffffffffffffffff167fddf252ad1be2c89b69c2b068fc378daa952ba7f163c4a11628f55a4df523b3ef60405160405180910390a4809150509392505050565b6118d383836119af565b6118e76118de610fc7565b5f85858561127b565b505050565b6118f7838383611aa2565b6119aa575f73ffffffffffffffffffffffffffffffffffffffff168373ffffffffffffffffffffffffffffffffffffffff160361196b57806040517f7e2732890000000000000000000000000000000000000000000000000000000081526004016119629190611ea6565b60405180910390fd5b81816040517f177e802f0000000000000000000000000000000000000000000000000000000081526004016119a1929190612989565b60405180910390fd5b505050565b5f73ffffffffffffffffffffffffffffffffffffffff168273ffffffffffffffffffffffffffffffffffffffff1603611a1f575f6040517f64a0ae92000000000000000000000000000000000000000000000000000000008152600401611a169190611d6d565b60405180910390fd5b5f611a2b83835f610fe0565b90505f73ffffffffffffffffffffffffffffffffffffffff168173ffffffffffffffffffffffffffffffffffffffff1614611a9d575f6040517f73c6ac6e000000000000000000000000000000000000000000000000000000008152600401611a949190611d6d565b60405180910390fd5b505050565b5f8073ffffffffffffffffffffffffffffffffffffffff168373ffffffffffffffffffffffffffffffffffffffff1614158015611b5957508273ffffffffffffffffffffffffffffffffffffffff168473ffffffffffffffffffffffffffffffffffffffff161480611b1a5750611b198484610e11565b5b80611b5857508273ffffffffffffffffffffffffffffffffffffffff16611b4083610f8e565b73ffffffffffffffffffffffffffffffffffffffff16145b5b90509392505050565b5f604051905090565b5f80fd5b5f80fd5b5f7fffffffff0000000000000000000000000000000000000000000000000000000082169050919050565b611ba781611b73565b8114611bb1575f80fd5b50565b5f81359050611bc281611b9e565b92915050565b5f60208284031215611bdd57611bdc611b6b565b5b5f611bea84828501611bb4565b91505092915050565b5f8115159050919050565b611c0781611bf3565b82525050565b5f602082019050611c205f830184611bfe565b92915050565b5f81519050919050565b5f82825260208201905092915050565b5f5b83811015611c5d578082015181840152602081019050611c42565b5f8484015250505050565b5f601f19601f8301169050919050565b5f611c8282611c26565b611c8c8185611c30565b9350611c9c818560208601611c40565b611ca581611c68565b840191505092915050565b5f6020820190508181035f830152611cc88184611c78565b905092915050565b5f819050919050565b611ce281611cd0565b8114611cec575f80fd5b50565b5f81359050611cfd81611cd9565b92915050565b5f60208284031215611d1857611d17611b6b565b5b5f611d2584828501611cef565b91505092915050565b5f73ffffffffffffffffffffffffffffffffffffffff82169050919050565b5f611d5782611d2e565b9050919050565b611d6781611d4d565b82525050565b5f602082019050611d805f830184611d5e565b92915050565b611d8f81611d4d565b8114611d99575f80fd5b50565b5f81359050611daa81611d86565b92915050565b5f8060408385031215611dc657611dc5611b6b565b5b5f611dd385828601611d9c565b9250506020611de485828601611cef565b9150509250929050565b5f805f60608486031215611e0557611e04611b6b565b5b5f611e1286828701611d9c565b9350506020611e2386828701611d9c565b9250506040611e3486828701611cef565b9150509250925092565b611e4781611cd0565b82525050565b5f6040820190508181035f830152611e658185611c78565b9050611e746020830184611e3e565b9392505050565b5f60208284031215611e9057611e8f611b6b565b5b5f611e9d84828501611d9c565b91505092915050565b5f602082019050611eb95f830184611e3e565b92915050565b611ec881611bf3565b8114611ed2575f80fd5b50565b5f81359050611ee381611ebf565b92915050565b5f8060408385031215611eff57611efe611b6b565b5b5f611f0c85828601611d9c565b9250506020611f1d85828601611ed5565b9150509250929050565b5f80fd5b5f80fd5b7f4e487b71000000000000000000000000000000000000000000000000000000005f52604160045260245ffd5b611f6582611c68565b810181811067ffffffffffffffff82111715611f8457611f83611f2f565b5b80604052505050565b5f611f96611b62565b9050611fa28282611f5c565b919050565b5f67ffffffffffffffff821115611fc157611fc0611f2f565b5b611fca82611c68565b9050602081019050919050565b828183375f83830152505050565b5f611ff7611ff284611fa7565b611f8d565b90508281526020810184848401111561201357612012611f2b565b5b61201e848285611fd7565b509392505050565b5f82601f83011261203a57612039611f27565b5b813561204a848260208601611fe5565b91505092915050565b5f805f806080858703121561206b5761206a611b6b565b5b5f61207887828801611d9c565b945050602061208987828801611d9c565b935050604061209a87828801611cef565b925050606085013567ffffffffffffffff8111156120bb576120ba611b6f565b5b6120c787828801612026565b91505092959194509250565b5f67ffffffffffffffff8211156120ed576120ec611f2f565b5b6120f682611c68565b9050602081019050919050565b5f612115612110846120d3565b611f8d565b90508281526020810184848401111561213157612130611f2b565b5b61213c848285611fd7565b509392505050565b5f82601f83011261215857612157611f27565b5b8135612168848260208601612103565b91505092915050565b5f806040838503121561218757612186611b6b565b5b5f61219485828601611d9c565b925050602083013567ffffffffffffffff8111156121b5576121b4611b6f565b5b6121c185828601612144565b9150509250929050565b5f80604083850312156121e1576121e0611b6b565b5b5f6121ee85828601611d9c565b92505060206121ff85828601611d9c565b9150509250929050565b7f4e487b71000000000000000000000000000000000000000000000000000000005f52602260045260245ffd5b5f600282049050600182168061224d57607f821691505b6020821081036122605761225f612209565b5b50919050565b5f6060820190506122795f830186611d5e565b6122866020830185611e3e565b6122936040830184611d5e565b949350505050565b7f546f6b656e20646f6573206e6f742065786973740000000000000000000000005f82015250565b5f6122cf601483611c30565b91506122da8261229b565b602082019050919050565b5f6020820190508181035f8301526122fc816122c3565b9050919050565b7f496e76616c6964205552490000000000000000000000000000000000000000005f82015250565b5f612337600b83611c30565b915061234282612303565b602082019050919050565b5f6020820190508181035f8301526123648161232b565b9050919050565b7f4e487b71000000000000000000000000000000000000000000000000000000005f52601160045260245ffd5b5f6123a282611cd0565b91506123ad83611cd0565b92508282039050818111156123c5576123c461236b565b5b92915050565b7f4e487b71000000000000000000000000000000000000000000000000000000005f52603260045260245ffd5b5f81905092915050565b7f68747470733a2f2f676174657761792e70696e6174612e636c6f75642f6970665f8201527f732f000000000000000000000000000000000000000000000000000000000000602082015250565b5f61245c6022836123f8565b915061246782612402565b602282019050919050565b5f61247c82611c26565b61248681856123f8565b9350612496818560208601611c40565b80840191505092915050565b5f6124ac82612450565b91506124b88284612472565b915081905092915050565b7f4f6e6c79206973737565720000000000000000000000000000000000000000005f82015250565b5f6124f7600b83611c30565b9150612502826124c3565b602082019050919050565b5f6020820190508181035f830152612524816124eb565b9050919050565b7f55524920726571756972656400000000000000000000000000000000000000005f82015250565b5f61255f600c83611c30565b915061256a8261252b565b602082019050919050565b5f6020820190508181035f83015261258c81612553565b9050919050565b5f61259d82611cd0565b91507fffffffffffffffffffffffffffffffffffffffffffffffffffffffffffffffff82036125cf576125ce61236b565b5b600182019050919050565b5f819050815f5260205f209050919050565b5f6020601f8301049050919050565b5f82821b905092915050565b5f600883026126367fffffffffffffffffffffffffffffffffffffffffffffffffffffffffffffffff826125fb565b61264086836125fb565b95508019841693508086168417925050509392505050565b5f819050919050565b5f61267b61267661267184611cd0565b612658565b611cd0565b9050919050565b5f819050919050565b61269483612661565b6126a86126a082612682565b848454612607565b825550505050565b5f90565b6126bc6126b0565b6126c781848461268b565b505050565b5b818110156126ea576126df5f826126b4565b6001810190506126cd565b5050565b601f82111561272f57612700816125da565b612709846125ec565b81016020851015612718578190505b61272c612724856125ec565b8301826126cc565b50505b505050565b5f82821c905092915050565b5f61274f5f1984600802612734565b1980831691505092915050565b5f6127678383612740565b9150826002028217905092915050565b61278082611c26565b67ffffffffffffffff81111561279957612798611f2f565b5b6127a38254612236565b6127ae8282856126ee565b5f60209050601f8311600181146127df575f84156127cd578287015190505b6127d7858261275c565b86555061283e565b601f1984166127ed866125da565b5f5b82811015612814578489015182556001820191506020850194506020810190506127ef565b86831015612831578489015161282d601f891682612740565b8355505b6001600288020188555050505b505050505050565b7f5468697320746f6b656e206973206e6f6e2d7472616e7366657261626c6500005f82015250565b5f61287a601e83611c30565b915061288582612846565b602082019050919050565b5f6020820190508181035f8301526128a78161286e565b9050919050565b5f81519050919050565b5f82825260208201905092915050565b5f6128d2826128ae565b6128dc81856128b8565b93506128ec818560208601611c40565b6128f581611c68565b840191505092915050565b5f6080820190506129135f830187611d5e565b6129206020830186611d5e565b61292d6040830185611e3e565b818103606083015261293f81846128c8565b905095945050505050565b5f8151905061295881611b9e565b92915050565b5f6020828403121561297357612972611b6b565b5b5f6129808482850161294a565b91505092915050565b5f60408201905061299c5f830185611d5e565b6129a96020830184611e3e565b939250505056fea264697066735822122061eb7ebd1bea50967573de129193825ca2995fa836e1377cff0214a0d871563364736f6c63430008180033",
  "linkReferences": {},
  "deployedLinkReferences": {}
}